:020000040800F2
:10000000C0580020690200082D5200086D4A0008FF
:1000100029520008390B0008D977000800000000B9
:10002000000000000000000000000000A90100081E
:10003000E50C00080000000005020008456D0008FE
:10004000830200088302000883020008830200087C
:100050008302000883020008E70C000883020008FE
:10006000830200088302000883020008830200085C
:10007000250C0008350C0008450C0008550C00083C
:10008000650C0008750C0008830200088302000854
:10009000830200088302000883020008830200082C
:1000A000830200088302000883020008830200081C
:1000B0004D6E00085D6E000800000000830200081D
:1000C00083020008830200088302000883020008FC
:1000D0008302000845770008557700086577000817
:1000E000F10C00088302000800000000000000007E
:1000F0000000000000000000000000000000000000
:1001000000000000115600080000000083020008F3
:1001100009700008000000008302000800000000D1
:100120008302000883020008850C0008950C000873
:10013000A50C0008830200088302000800000000EC
:100140008302000883020008830200080000000008
:10015000830200088302000883020008830200086B
:1001600083020008830200088302000800000000E8
:1001700000000000830200080000000000000000F2
:10018000830200088302000883020008830200083B
:1001900083020008DFF80CD000F032FB0048004773
:1001A000E1AD0008C05800202C4B19680868B0E881
:1001B000F04F80F30988BFF36F8F4FF0000080F39A
:1001C000118870470000000008480068006880F34C
:1001D00008884FF0000080F3148862B661B6BFF360
:1001E0004F8FBFF36F8F00DF00BF00BF08ED00E04F
:1001F000DFF80C00016841F470010160704700BF36
:1002000088ED00E0EFF30980BFF36F8F134B1A689E
:100210001EF0100F08BF20ED108A20E9F04F10608B
:1002200009B44FF0500080F31188BFF34F8FBFF334
:100230006F8F0CF021F94FF0000080F3118809BC9A
:1002400019680868B0E8F04F1EF0100F08BFB0EC56
:10025000108A80F30988BFF36F8F70477001002008
:10026000EFF30580704700000648804706480047C6
:10027000FEE7FEE7FEE7FEE7FEE7FEE7FEE7FEE756
:10028000FEE7FEE7FD6D0008950100082DE9F05F2F
:100290000546002092469B468846064681464024F5
:1002A0001BE0284641464746224600F02AFA5346BC
:1002B0005A46C01A914110D311461846224600F002
:1002C00011FA2D1A67EB01084F4622460120002142
:1002D00000F008FA17EB00094E41201EA4F10104BA
:1002E000DFDC484631462A464346BDE8F09F40EAF7
:1002F00001039B0703D009E008C9121F08C0042AA4
:10030000FAD203E011F8013B00F8013B521EF9D28A
:100310007047D2B201E000F8012B491EFBD27047B2
:100320000022F6E710B513460A4604461946FFF7C1
:10033000F0FF204610BD421E12F8013F002BFBD1FA
:1003400011F8013B02F8013B002BF9D17047421C28
:1003500010F8011B0029FBD1801A70472DE9FE4FD0
:10036000804681EA0300C00F0C46009021F0004156
:1003700023F00045B8EB0200A94105D240462146D2
:1003800090461C460B46024623F00040104347D0DF
:10039000270DC7F30A00C3F30A510290401A0190D7
:1003A00040286BDAC3F3130040F4801B0098924698
:1003B00020B10023D2EB030A63EB0B0B01985946E3
:1003C000C0F14002504600F08DF906460D465046F9
:1003D0005946019A00F0A5F910EB0800614100248C
:1003E00087EA115284EAE7731A4340D0009A62B355
:1003F000019A012A4FEA075215DC001B61EB02014A
:100400004FF0004202EA0752CDE90042001C41F5DC
:10041000801132462B4600F0A5F903B0BDE8F08FFD
:1004200040462146F9E7001B61EB0201001C41F543
:10043000801300185B412018A2F5001747EB030159
:1004400040EAD570B6196D4111E06D084FEA3606E5
:1004500045EAC0754FEA0752001B61EB0201001C20
:1004600041F5801149084FEA3000001951413246E8
:100470002B4603B0BDE8F04F00F065B900980122AB
:1004800040000023D0EB020263EBE07300982146AA
:100490004FEAE074B8EB000061EB0401E9E783F098
:1004A00000435BE781F0004158E72DE9FE4F81EA08
:1004B000030404F0004421F0004100944FF0000BCD
:1004C00023F0004350EA01045ED052EA03045BD0FB
:1004D000C3F30A54C1F30A552C44A4F2F334019433
:1004E000A0FB0254C1F3130141F48011C3F31303C1
:1004F00043F4801301FB024400FB034E840A970A75
:1005000044EA815447EA8357A4FB076802958D0AA1
:1005100005FB07854FEA932C04FB0C542705029D2D
:100520004FEA065847EA1637B5EB08056EEB070C9D
:10053000870E920E47EA811742EA8312A7FB020157
:10054000B6EB0B0164EB00042B0D43EA0C335E1891
:1005500044EB1C50DA465146E7FB0201C5F3130495
:100560004FEA0B3343EA14534FEA0432019C43EA47
:100570000603A4F10C040294009CCDE900B400F041
:10058000F1F803B0BDE8F08F00200146F9E72DE94E
:10059000F04D81EA030404F0004B21F000451446BD
:1005A0004FF0000A23F0004150EA050220D054EA3F
:1005B00001021DD0C5F30A570246C5F31303C1F368
:1005C0001300C1F30A5640F4801543F48013A7EBDF
:1005D0000608101BD64608F2FD3873EB050002D35F
:1005E00008F1010801E092185B41B8F1000F03DA4D
:1005F00000200146BDE8F08D00204FF48011064632
:1006000084460EE0171B73EB050705D3121B63EB43
:10061000050306434CEA010C49084FEA30009218E2
:100620005B4150EA0107EDD152EA030012D082EAA1
:10063000040083EA0501084305D0101BAB4106D234
:100640000122002306E000224FF0004302E06FF099
:10065000010253101AEB06004CEB085110EB0A0094
:1006600041EB0B01BDE8F04D00F06DB80EB540F266
:10067000334102910021CDE900110A460B4600F0FA
:1006800071F803B000BDC1F30A5210B5C1F31301F4
:1006900040F2FF3341F480119A4201DA002010BD8C
:1006A00040F233439A42A2F2334203DC524200F05A
:1006B00028F810BD904010BD30B50B460146002013
:1006C0002022012409E021FA02F59D4205D303FA14
:1006D00002F5491B04FA02F52844151EA2F1010295
:1006E000F1DC30BD202A04DB203A00FA02F10020C0
:1006F00070479140C2F1200320FA03F31943904060
:100700007047202A04DB203A21FA02F000217047CA
:1007100021FA02F3D040C2F1200291400843194669
:100720007047202A06DBCB17203A41FA02F043EA51
:10073000E07306E041FA02F3D040C2F1200291409A
:1007400008431946704710B5141E73F1000408DA07
:10075000401C41F1000192185B411A4301D120F085
:10076000010010BD2DE9F04D92469B4611B1B1FA42
:1007700081F202E0B0FA80F220329046FFF7B2FF39
:1007800004460F4640EA0A0041EA0B0153465A4626
:10079000084313D0114653EA010019D0C8F14002B2
:1007A0005046FFF7AEFF05460E46504659464246B4
:1007B000FFF798FF084305D0012004E020463946A2
:1007C000BDE8F08D0020054346EAE0762C43374330
:1007D0000A986305E40AA0EB08000022FD0A44EA37
:1007E00047540A3002D500200146E9E701051019F7
:1007F0006941DDE9084500196941BDE8F04DA2E70E
:10080000064C074D06E0E06840F0010394E807005D
:1008100098471034AC42F6D3FFF7C0FC04840308B9
:100820002484030870B58C1810F8015B15F00703D9
:1008300001D110F8013B2A1106D110F8012B03E079
:1008400010F8016B01F8016B5B1EF9D12B0705D481
:100850000023521E0DD401F8013BFAE710F8013BCA
:10086000CB1A921C03E013F8015B01F8015B521EE6
:10087000F9D5A142D8D3002070BD000010B50124E5
:100880000821034800F058FE00B10024204610BDA6
:10089000000400487047000010B504462146024895
:1008A00002F0D8FD10BD0000F00C002010B5044887
:1008B00002F0E3FD042801D0012010BD0020FCE778
:1008C000F00C002010B5002400F014F8012801D02D
:1008D000022010BD064802F0E5FE044634B94FF48C
:1008E0000061034802F06EFC00B101242046F0E7ED
:1008F000F00C002008B501200090FFF7BFFF08B9F9
:10090000002000909DF8000008BD00002DE9F04196
:1009100004460D4616460027084805F0B5FA10B102
:100920000120BDE8F08133462A462146034803F002
:1009300009F800B101273846F3E70000F00C002069
:1009400010B54FF0FF320121024800680AF076FB33
:1009500010BD00005C0100202DE9F04104460D4669
:1009600016460027084805F0B9FA10B10120BDE885
:10097000F08133462A462146034803F07FF800B150
:1009800001273846F3E70000F00C002010B54FF0C7
:10099000FF320221024800680AF050FB10BD00003F
:1009A0005C01002010B500224D494E4800680CF053
:1009B0004DF9012803D14A4800884B4908804B482B
:1009C000008840B94A48006840F001004849086082
:1009D0000120484908704548C07E28B14348008836
:1009E00040F67E61884203DB43480078142812DC1D
:1009F00042480078401C41490870084600783C286D
:100A00000CDB01203B4948703948006840F0020087
:100A10003749086002E00020364948703348807E3C
:100A200020B132480088B0F5666F03DB32480078A9
:100A30000A2812DC31480078401C3049087008460A
:100A400000783C280CDB01202A498870284800687F
:100A500040F004002649086002E000202549887023
:100A60002248008840F61C41884229DD224800784F
:100A7000052825DC22480078401C214908700846DA
:100A800000783C282ADB01201A49C8701848006801
:100A900040F00800164908601448407F012805D03E
:100AA00001221102174800F04FFD17E00F48407F68
:100AB000012813D100220102124800F045FD0DE08B
:100AC00000200F4908700B49C8700848407F28B1C2
:100AD00000224FF480710B4800F036FD10BD00007D
:100AE0009C00002098000020A000002000100020A2
:100AF0009400002020100020860000209E0000208E
:100B00009F0000200004004810B5002407F04CFBB3
:100B100004460748007848B144B90648006840F0E8
:100B200010000449086000200149087010BD000051
:100B30002D0000209400002000BFFEE710B52D4BD3
:100B40009A785978187804F013FD2A498871084674
:100B50004079401C4871084640793C2800D010BDBF
:100B600000202449487108460079401C0871084655
:100B700000793C2800D0F2E700201E4908710846A1
:100B8000C078401CC8700846C078182800D0E6E736
:100B900000201849C87008468078401C8870087882
:100BA00004F0D2F840B11348807812494978124ACB
:100BB000515C884209DCD2E70E4880780D494978BB
:100BC0000E4A515C884200DCC9E70120094988705F
:100BD00008464078401C4870084640780D2800D0F0
:100BE000BDE701200349487008460078401C0870A2
:100BF00000BFB4E7280100206AD700085DD70008CD
:100C000010B502460B460020002104E0545C044469
:100C1000E0B24C1CE1B29942F8DBC443641CE0B280
:100C200010BD000010B5024800F000FA10BD000031
:100C3000B40F002010B5024800F0F8F910BD000014
:100C40006C0F002010B5024800F0F0F910BD000054
:100C5000940E002010B5024800F0E8F910BD000025
:100C60004C0E002010B5024800F0E0F910BD000065
:100C7000240F002010B5024800F0D8F910BD000084
:100C8000DC0E002010B5024800F0D0F910BD0000C5
:100C9000040E002010B5024800F0C8F910BD000095
:100CA000740D002010B5024800F0C0F910BD00001E
:100CB000BC0D002030B590F8444004F01C05012420
:100CC000AC40056C6C60046863608468102C04D1CF
:100CD0000468A2600468E16003E00468A16004683D
:100CE000E26030BD704710B5012000F033FB10BD4D
:100CF00010B54FF4005000F02DFB10BD704730B51B
:100D000004460D4600222946204600F001F830BD79
:100D1000F0B50346012500241148407A01281CDA69
:100D200000200F4E767A0E4FB8553846467A001D91
:100D300040F82630001F467A083082553E46707AC9
:100D4000461C7E72044604F1300008703A20487058
:100D50002F2088700020C87000252846F0BD0000B4
:100D60006037002070B5002415491648FFF7E3FAF4
:100D700015491448FFF7DFFA14491248FFF7DBFA68
:100D800013480068FFF7E3FA05462A461048016851
:100D90001048FFF7ACFA10480068FFF7D8FA05468C
:100DA0002A460D4801680D48FFF7A1FA05F008FE34
:100DB000012801D0002070BD01242046FBE700007F
:100DC00024D700080619002038D700084ED700089D
:100DD000B000002090180020B400002099180020D6
:100DE00031490978314A51702F49497891702E491B
:100DF0008978D1702C49C97851712B490979917141
:100E00002949497911702849897911711146497820
:100E10000A2291FBF2F302FB131101702349497876
:100E200091FBF2F14170002181700221C1701F49D4
:100E3000897891FBF2F302FB131101711B49897848
:100E400091FBF2F141711949C97891FBF2F302FB70
:100E5000131181711549C97891FBF2F1C1711349E0
:100E6000497991FBF2F302FB131101720F494979A1
:100E700091FBF2F141720D49897991FBF2F302FB8A
:100E8000131181720949897991FBF2F1C172074905
:100E9000097891FBF2F302FB1311017303490978FE
:100EA00091FBF2F14173704728010020A700002058
:100EB0000146002291F82500022808D00420C863CA
:100EC00000BF002081F8240000BF0120704708689F
:100ED000006820F00E000B6818600868006820F0B9
:100EE00001000B68186091F8440000F01C03012019
:100EF00098400B6C5860012081F8250000BF00204D
:100F000081F8240000BF1046E0E770B504460025D4
:100F100094F82500022803D00420E063012520E096
:100F20002068006820F00E002168086020680068D2
:100F300020F001002168086094F8440000F01C01D2
:100F400001208840216C4860012084F8250000BF02
:100F5000002084F8240000BFA06B10B12046A16BD4
:100F60008847284670BD0000014609B90120704736
:100F70000868006820F001000A681060294A0868C3
:100F800090420BD2284A0868801A1422B0FBF2F073
:100F9000800048642448083808640AE0214A086848
:100FA000801A1422B0FBF2F0800048641D48083813
:100FB000086400200A68106091F8440000F01C02E8
:100FC000012090400A6C5060174A083A086C904221
:100FD0000DD1D0F8A80091F8442002F01C030F2294
:100FE0009A409043104A083AC2F8A8000CE00D4815
:100FF000A030006891F8442002F01C030F229A40B0
:101000009043084AA03210600020C8620863486319
:101010008863C86381F8250000BF81F8240000BF01
:1010200000BFA4E7080402400800024070B504466F
:10103000206C05682068066894F8440000F01C01E4
:10104000042088402840E0B106F00400C8B12068C0
:10105000006800F0200028B92068006820F0040033
:101060002168086094F8440000F01C0104208840C6
:10107000216C4860206B002856D02046216B8847A1
:1010800052E094F8440000F01C01022088402840FF
:1010900018B306F0020000B32068006800F02000DA
:1010A00040B92068006820F00A002168086001202B
:1010B00084F8250094F8440000F01C0102208840C8
:1010C000216C486000BF002084F8240000BFE06A63
:1010D00050B32046E16A884726E094F8440000F0C7
:1010E0001C01082088402840F0B106F00800D8B163
:1010F0002068006820F00E002168086094F8440021
:1011000000F01C0101208840216C48600120E06350
:1011100084F8250000BF002084F8240000BF606B25
:1011200010B12046616B884770BD000010B50146C4
:1011300009B9012010BD3E4B086898420BD23D4BC7
:101140000868C01A1423B0FBF3F0800048643948E3
:10115000083808640AE0364B0868C01A1423B0FB4C
:10116000F3F080004864324808380864022081F8AF
:1011700025000868026847F6F0708243D1E902034F
:1011800018430B6918434B6918438B691843CB69A3
:1011900018430B6A18430243086802608868B0F578
:1011A000804F3AD0234B083B086C98421BD1D0F8B3
:1011B000A80091F8443003F01C040F23A340984387
:1011C0001C4BA033186091F8443003F01C034868AE
:1011D0009840184B083BD3F8A8301843154B083BF0
:1011E000C3F8A80019E01248A030006891F8443014
:1011F00003F01C040F23A34098430D4BA033186049
:1012000091F8443003F01C0348689840084BA03321
:101210001B681843064BA03318600020C8630120E8
:1012200081F82500002081F8240000BF82E700003B
:1012300008040240080002402DE9F04104460D4632
:1012400016461F464FF0000800BF94F824000128FE
:1012500002D10220BDE8F081012084F8240000BF03
:1012600094F8250001282CD1022084F825000020C4
:10127000E0632068006820F00100216808603B46B8
:10128000324629462046FFF715FD206B30B1206815
:10129000006840F00E00216808600BE020680068DC
:1012A00020F00400216808602068006840F00A000F
:1012B000216808602068006840F00100216808602B
:1012C00006E000BF002084F8240000BF4FF00208B1
:1012D0004046BFE770B5044600F03CF90646254697
:1012E000681C10B104480078054400BF00F032F9D2
:1012F000801BA842FAD370BDD801002010B5044667
:10130000B4F5005F1FD11048006841F2883188426F
:1013100019D906F049FFB0B10C480088401C0B49B0
:101320000880088800EBD0714910A0EB410129B179
:1013300001200749087009F09DFC04E002200449DF
:10134000087009F0ABFC10BD040000205E00002016
:101350002C00002010B5044604480068204020B14D
:10136000024804602046FFF7C9FF10BD1404014085
:1013700078B503460022CBE0012696400D6805EAC9
:101380000604002C72D04D68012D08D04D68022D46
:1013900005D04D68112D02D04D68122D13D19868DB
:1013A00056000325B540A8435600CD68B5402843F4
:1013B0009860586801259540A8430D79C5F300153C
:1013C000954028435860D86856000325B540A84387
:1013D00056008D68B5402843D8604D68022D02D074
:1013E0004D68122D13D1D60803F1200555F82600BB
:1013F0005507EE0E0F25B540A8435607F60E0D69AA
:10140000B5402843D60803F1200545F826001868A2
:1014100056000325B540A8430D7905F00305560095
:10142000B540284318604D6805F08055B5F1805FE0
:101430006DD100BF394D2D6E45F00105374E356633
:1014400035462D6E05F00105009500BF00BF4FEA3F
:10145000B635960855F8260095072E0F0F25B5408E
:10146000A843B3F1904F02D1002515E04FE02C4D79
:10147000AB4201D101250FE02A4DAB4201D102253B
:101480000AE0294DAB4201D1032505E0274DAB42CF
:1014900001D1042500E007259607360FB540284303
:1014A000234D960845F82600224D2868A0434D6834
:1014B00005F48035B5F5803F00D120431D4D2860EF
:1014C0002D1D2868A0434D6805F40035B5F5003F93
:1014D00000D12043174D2D1D28602D1D2868A043E5
:1014E0004D6805F48015B5F5801F00D12043114DDE
:1014F000083528602D1D2868A0434D6805F40015A7
:10150000B5F5001F00D120430A4D0C352860521C50
:101510000D68D540002D7FF42FAF78BD001002403C
:101520000004004800080048000C00480010004873
:101530000800014000040140024613690B400BB152
:10154000012000E0002070470AB1816100E0816263
:10155000704700000148006870470000D00100207B
:10156000024692F8410020282DD100BF92F8400099
:10157000012801D102207047012082F8400000BFFD
:10158000242082F841001068006820F001001368F0
:1015900018601068006820F48050136818601068A4
:1015A00000680843136818601068006840F0010084
:1015B00013681860202082F8410000BF002082F8E4
:1015C000400000BFD7E70220D5E710B502460B4622
:1015D00092F8410020282AD100BF92F8400001284B
:1015E00001D1022010BD012082F8400000BF24205C
:1015F00082F841001068006820F001001468206043
:101600001068016821F4706141EA032110680160EB
:101610001068006840F0010014682060202082F803
:10162000410000BF002082F8400000BFDAE702203E
:10163000D8E7000010B504460CB9012010BD94F89D
:10164000410028B9002084F84000204600F0B6F997
:10165000242084F841002068006820F001002168FF
:101660000860606820F07060216808612068806808
:1016700020F4004021688860E068012805D1A06856
:1016800040F400402168886004E0A06840F4044011
:1016900021688860E068022802D1800221684860E1
:1016A0002068406813490843216848602068C06882
:1016B00020F400402168C860D4E904010843A1690E
:1016C00040EA01202168C860D4E907010843216885
:1016D00008602068006840F0010021680860002070
:1016E0006064202084F841000020206384F84200D8
:1016F00000BFA3E7008000022DE9F84304468946B5
:1017000016461F46DDF8208094F84100202873D14A
:1017100000BF94F84000012802D10220BDE8F88300
:10172000012084F8400000BFFFF714FF054619238D
:101730000122D1032046009503F026FA08B10120CA
:10174000ECE7222084F84100102084F842000020B9
:101750006064666267856063608DFF280CD9FF2036
:1017600020853C48009094F828204FF0807349462B
:10177000204603F0EFF90BE0608D2085354800909E
:1017800094F828204FF000734946204603F0E2F910
:101790003FE02A464146204603F026FA08B10120E0
:1017A000BCE72068406A616A0870606A401C606239
:1017B000208D401E2085608D401E6085608D40B369
:1017C000208D30BB4346002280212046009503F047
:1017D000DBF908B10120A1E7608DFF280DD9FF20BA
:1017E00020850020009094F828204FF0807349460F
:1017F000204603F0AFF90CE02AE0608D2085002040
:10180000009094F828204FF000734946204603F0DA
:10181000A1F9608D0028BCD12A464146204603F03C
:1018200033FA08B1012079E720202168C8612068D7
:1018300040680949084021684860202084F8410038
:10184000002084F8420000BF84F8400000BF65E734
:10185000022063E70024008000E800FE2DE9F84341
:101860000446894616461F46DDF8208094F841005C
:10187000202871D100BF94F84000012802D1022035
:10188000BDE8F883012084F8400000BFFFF762FE46
:10189000054619230122D1032046009503F074F96F
:1018A00008B10120ECE7212084F84100102084F8E1
:1018B000420000206064666267856063608DFF2877
:1018C0000BD9FF2020853B48009094F82820C302C4
:1018D0004946204603F03EF90AE0608D20853548F0
:1018E000009094F8282003034946204603F032F97B
:1018F0003FE02A464146204603F0F1F908B10120B5
:10190000BEE7606A007821688862606A401C606295
:10191000608D401E6085208D401E2085608D40B307
:10192000208D30BB4346002280212046009503F0E5
:101930002BF908B10120A3E7608DFF280DD9FF2006
:1019400020850020009094F828204FF080734946AD
:10195000204603F0FFF80CE02AE0608D208500208F
:10196000009094F828204FF000734946204603F079
:10197000F1F8608D0028BCD12A464146204603F08C
:1019800083F908B101207BE720202168C861206825
:1019900040680949084021684860202084F84100D7
:1019A000002084F8420000BF84F8400000BF67E7D1
:1019B000022065E70020008000E800FE10B586B038
:1019C0000446142101A8FEF7ABFC184920688842A0
:1019D00029D100BF1648C06C40F004001449C86407
:1019E0000846C06C00F00400009000BF00BF032058
:1019F0000190122002900120039003200490022005
:101A0000059001A90B48FFF7B3FC00BF0848C06D63
:101A100040F002000649C8650846C06D00F00200AB
:101A2000009000BF00BF06B010BD00000084004061
:101A3000001002400008004870B504460CB90120AF
:101A400070BD4CF6CC402168086045F255502168C5
:101A50000860D4E9001048602168A0688860FFF73A
:101A600079FD054606E0FFF775FD401B302801D9DA
:101A70000320E5E72068C0680028F4D120680169E8
:101A8000E068814203D02168E068086103E04AF61B
:101A9000AA20216808600020D2E701464AF6AA2061
:101AA0000A681060002070470348006803490978FD
:101AB0000844014908607047D0010020D801002087
:101AC00010B50024032000F0A9F8002000F008F869
:101AD00008B1012401E000F02FF8204610BD0000FD
:101AE00070B50446002511480078D8B10F48007839
:101AF0004FF47A71B1FBF0F00D490968B1FBF0F6D3
:101B0000304602F04FF858B9102C07D20022214677
:101B1000501E00F045F80748046004E0012502E08B
:101B2000012500E00125284670BD0000D8010020F5
:101B3000DC010020D401002008B500BF0D48006E74
:101B400040F001000B4908660846006E00F00100F5
:101B5000009000BF00BF00BF0846806D40F080507D
:101B600088650846806D00F08050009000BF00BF7F
:101B700008BD0000001002400146084600280DDBA9
:101B800000BF00BF00F01F0301229A4043099B00E1
:101B900003F1E023C3F8002100BF00BF00BF70477E
:101BA0002DE9F05F80460D461646002706F02AF91B
:101BB000074639462A46334601F00700C0F1070AB6
:101BC000BAF1040F02D94FF0040A01E0C0F1070A8C
:101BD000D14600F1040ABAF1070F02D24FF0000A11
:101BE00001E0A0F1030AD4464FF0010A0AFA09FA0B
:101BF000AAF1010A0AEA020A0AFA0CFA4FF0010BEA
:101C00000BFA0CFBABF1010B0BEA030B4AEA0B04DA
:101C10002146404606F0FEF8BDE8F09F00BF00F008
:101C20000702064B19684FF6FF031940044B0B439C
:101C300043EA0221014B196000BF70470CED00E040
:101C40000000FA050246B2F5007F2AD11D4800685F
:101C500000F4C060B0F5007F32D01A48006820F46C
:101C6000C06040F40070174B1860174800683223BA
:101C70005843164BB0FBF3F0411C00E0491E1148DD
:101C8000406900F48060B0F5806F01D10029F5D182
:101C90000C48406900F48060B0F5806F10D10320DB
:101CA00070470848006800F4C060B0F5806F07D046
:101CB0000448006820F4C06040F48060014B186064
:101CC0000020EDE700700040DC01002040420F00E2
:101CD0000248006800F4C0607047000000700040D7
:101CE0002DE9F04707464FF00009B7F5003F2DD129
:101CF000FA48006800F44074B4F5807F06D0B4F56B
:101D0000007F0CD0B4F5407F1ED112E0F34800688C
:101D100000F00200022801D14FF4004915E0EF481D
:101D2000001D006800F00200022801D14FF4FA49BA
:101D30000BE0EA489038006800F40030B0F5003F4E
:101D400001D1DFF89C9300E000BF3BE3E34890380B
:101D5000C06800F00308B8F1010F06D0B8F1020F17
:101D600023D0B8F1030F38D12BE0DC48903800685D
:101D700000F00200022816D1D8489038006800F020
:101D8000080028B1D5489038006800F0F00005E060
:101D9000D248001D006800F4706000090009D149B4
:101DA00051F8205000E0002519E0CC489038006838
:101DB00000F48060B0F5806F01D1CB4D00E00025CC
:101DC0000DE0C6489038006800F40030B0F5003FE0
:101DD00001D1C54D00E0002501E0002500BF00BF96
:101DE000B7F5007F78D013DC202F76D008DC012FE8
:101DF00074D0022F73D0042F72D0082F71D144E118
:101E0000402F6FD0802F6ED0B7F5807FF6D12AE2B9
:101E1000B7F5803F68D009DCB7F5806F65D0B7F5BE
:101E2000006F0DD0B7F5804FE8D193E1B7F5802F63
:101E30000DD0B7F5002F0BD0B7F5801FDED134E2FF
:101E400029464FF4006003F0F3F98146B9E200BF80
:101E5000A2480838006800F04064E4B3B4F1806F31
:101E600058D0B4F1006F20D0B4F1406F7BD19B48C3
:101E70009038006800F00200022815D19748903889
:101E8000006800F0080028B194489038006800F01D
:101E9000F00005E09148001D006800F47060000942
:101EA0000009904951F8209069E08C48903800680A
:101EB00000F00070B0F1007F2BD188489038C068E6
:101EC00000F48010B0F5801F23D184489038C0689A
:101ED000C0F306260AE047E008E20CE151E07CE0AE
:101EE000A7E06DE27BE19CE16CE134E205FB06F0EA
:101EF0007A499039C968C1F30211491CB0FBF1F568
:101F000076489038C068C0F34150401C4000B5FB93
:101F1000F0F934E071489038006800F00060B0F1EA
:101F2000006F1FD16D489038006900F48010B0F543
:101F3000801F17D1694890380069C0F3062605FB59
:101F400006F066499039C968C1F30211491CB0FB1B
:101F5000F1F5624890380069C0F34150401C4000E0
:101F6000B5FBF0F90BE009E05C480830006800F0D0
:101F70000200022801D1DFF8749100E000BF00BF29
:101F80001FE256480838006800F0030434B1012C01
:101F900008D0022C0AD0032C1CD112E000F0D2FC95
:101FA000814618E000F0E0FC814614E04B48903890
:101FB000006800F48060B0F5806F01D1DFF82891EF
:101FC00009E04648006800F00200022801D14FF401
:101FD000004900E000BF00BFF3E140480838006856
:101FE00000F00C0434B1042C08D0082C0AD00C2CBE
:101FF0001CD112E000F094FC814618E000F0B4FC23
:10200000814614E035489038006800F48060B0F5EF
:10201000806F01D1DFF8D09009E03048006800F00F
:102020000200022801D14FF4004900E000BF00BFC8
:10203000C7E12A480838006800F0300434B1102C99
:1020400008D0202C0AD0302C1CD112E000F068FC03
:10205000814618E000F088FC814614E01F48903863
:10206000006800F48060B0F5806F01D1DFF87890EF
:1020700009E01A48006800F00200022801D14FF47C
:10208000004900E000BF00BF9BE114480838006829
:1020900000F0C00434B1402C08D0802C0AD0C02CF1
:1020A00026D112E000F03CFC814622E000F05CFC0E
:1020B00081461EE009489038006800F48060B0F561
:1020C000806F01D1DFF8209013E00448006800F031
:1020D0000200022801D14FF400490AE090100240AA
:1020E00020A10700948303080024F400006CDC02A4
:1020F00000BF00BF65E1B548006800F440644CB122
:10210000B4F5806F0AD0B4F5006F0BD0B4F5406F12
:102110001DD112E000F004FC814619E000F024FC1F
:10212000814615E0A9488838006800F48060B0F561
:10213000806F01D1DFF898920AE0A4480830006867
:1021400000F00200022801D14FF4004900E000BF76
:1021500000BF36E19D48006800F04054B4F1805F54
:1021600006D0B4F1405F2AD100F0FEFB814627E0A3
:1021700096488838006800F00060B0F1006F1DD10B
:1021800092488838006900F08070B8B18F4888386C
:102190000069C0F3062605FB06F08C498839C9683A
:1021A000C1F30211491CB0FBF1F588488838006979
:1021B000C0F34160401C4000B5FBF0F900E000BFF7
:1021C00000BFFEE08148006800F000441CB900F048
:1021D000B9FB814602E000F0C7FB8146F1E07B4895
:1021E000006800F4405434B1B4F5805F07D0B4F512
:1021F000005F13D107E000F093FB81460FE000F091
:10220000B3FB81460BE071488838006800F48060B9
:10221000B0F5806F01D1DFF8B89100E000BF00BFDA
:10222000CFE06A48006800F4404434B1B4F5804F10
:1022300007D0B4F5004F13D107E000F071FB8146E1
:102240000FE000F091FB81460BE0604888380068A1
:1022500000F48060B0F5806F01D1DFF8749100E088
:1022600000BF00BFADE05948006800F4403434B10D
:10227000B4F5803F07D0B4F5003F13D107E000F07C
:102280004FFB81460FE000F06FFB81460BE04F48AB
:102290008838006800F48060B0F5806F01D1DFF805
:1022A000309100E000BF00BF8BE048481430006868
:1022B00000F0030424B1012C06D0022C13D107E056
:1022C00000F02EFB81460FE000F04EFB81460BE054
:1022D0003E488838006800F48060B0F5806F01D116
:1022E000DFF8EC9000E000BF00BF6AE0374800680C
:1022F00000F440244CB1B4F5802F0AD0B4F5002F7F
:1023000011D0B4F5402F23D118E000F009FB81462D
:102310001FE02E480C30006800F00200022801D1B6
:102320004FF4FA4915E029488838006800F48060C5
:10233000B0F5806F01D1DFF898900AE023480830AB
:10234000006800F00200022801D14FF4004900E0CB
:1023500000BF00BF35E01D48006800F440144CB1D8
:10236000B4F5801F0AD0B4F5001F11D0B4F5401F9A
:1023700023D118E000F0D4FA81461FE013480C3056
:10238000006800F00200022801D14FF4FA4915E07C
:102390000E488838006800F48060B0F5806F01D185
:1023A000DFF82C900AE009480830006800F00200CD
:1023B000022801D14FF4004900E000BF00BF00E057
:1023C00000BF00BF4846BDE8F0870000881002400B
:1023D0000024F4002DE9F84304460025A84620888F
:1023E00000F40060B0F5006F26D1E06C68B1B0F584
:1023F000000F03D0B0F5400F0ED10CE0E448C068E8
:1024000040F48030E249C86008E00021201D02F05D
:102410009DFF054602E001E0012500BF00BF55B960
:10242000DB488830006820F44000E16C0843D8495C
:10243000C1F8880000E0A846206800F40030B0F53C
:10244000003F75D14FF00009D148806D012121EA8C
:10245000107078B100BFCE48806D40F08050CC49FC
:1024600088650846806D00F08050009000BF00BF76
:102470004FF00109C748006840F48070C549086002
:10248000FFF768F8074606E0FFF764F8C01B02286C
:1024900001D9032505E0BF48006800F480700028DA
:1024A000F2D000BF7DBBBA489030006800F440769F
:1024B000CEB1206EB04216D0B5489030006820F4FE
:1024C0004076B348D0F8900040F48030B049C1F86D
:1024D00090000846D0F8900020F48030C1F89000B9
:1024E0000846C0F8906006F00100A8B1FFF732F886
:1024F000074609E0FFF72EF8C01B41F288318842F9
:1025000002D9032507E016E0A1489030006800F0EA
:1025100002000028EED000BF5DB99D4890300068F1
:1025200020F44070216E08439949C1F8900003E0FF
:102530000CE0A84600E0A846B9F1010F05D1944887
:10254000806D20F080509249886500BF207800F0AF
:10255000010048B18E488830006820F00300216AED
:1025600008438B49C1F88800207800F00200022857
:1025700009D187488830006820F00C00616A084360
:102580008349C1F88800207800F00400042809D1AC
:102590007F488830006820F03000A16A08437C49F9
:1025A000C1F88800207800F00800082809D1784890
:1025B0008830006820F0C000E16A08437449C1F81F
:1025C0008800207800F02000202809D17048883049
:1025D000006820F44060216B08436D49C1F8880011
:1025E000208800F40070B0F5007F09D16848883079
:1025F000006820F44020616C08436549C1F88800F8
:10260000208800F48060B0F5806F09D16048883080
:10261000006820F44010A16C08435D49C1F88800AF
:10262000207800F04000402809D1594888300068DF
:1026300020F44050616B08435549C1F88800207868
:1026400000F08000802809D151488830006820F4CB
:102650004040A16B08434E49C1F88800208800F42F
:102660008070B0F5807F09D149488830006820F437
:102670004030E16B08434649C1F88800206800F407
:102680008010B0F5801F09D141489C30006820F0CF
:102690000300216C08433E49C1F89C00206800F407
:1026A0000020B0F5002F1FD139488830006820F095
:1026B0004060216D0843364988310860206DB0F1D3
:1026C000006F06D13248C06840F480103049C860BD
:1026D0000AE0206DB0F1806F06D10121201D02F0CB
:1026E00035FE054605B1A846206800F48020B0F507
:1026F000802F1FD126488830006820F04060616D2F
:102700000843234988310860606DB0F1006F06D13D
:102710001F48C06840F480101D49C8600AE0606D21
:10272000B0F1806F06D10121201D02F00FFE054699
:1027300005B1A846208800F48040B0F5804F14D140
:1027400013488830006820F04050A16D08431049BC
:1027500088310860A06DB0F1805F06D10221201D94
:1027600002F0F4FD054605B1A846206800F480306B
:10277000B0F5803F09D106488830006820F000405D
:10278000E16D08430249C1F888004046BDE8F8837E
:1027900000100240007000402DE9F04104460D4653
:1027A00014B90120BDE8F0815548006800F0070029
:1027B000A8420ED25248006820F007002843504932
:1027C00008600846006800F00700A84201D0012018
:1027D000E8E7207800F00100002840D06068032876
:1027E00006D14848006800F00070D8B90120D9E748
:1027F0006068022806D14348006800F4003088B9B8
:102800000120CFE7606830B93E48006800F0020060
:1028100040B90120C6E73B48006800F4806008B971
:102820000120BFE73748806820F003006168084353
:1028300034498860FEF78EFE064608E0FEF78AFE01
:10284000801B41F28831884201D90320AAE72D4834
:10285000806800F00C006168B0EB810FEED1207849
:1028600000F00200022807D12648806820F0F0001E
:10287000A1680843234988602148006800F00700E8
:10288000A8420ED91E48006820F0070028431C49C2
:1028900008600846006800F00700A84201D0012047
:1028A00080E7207800F00400042807D115488068EC
:1028B00020F4E060E168084312498860207800F065
:1028C0000800082808D10F48806820F4605021696A
:1028D00040EAC1000B49886000F046F80949896860
:1028E000C1F30311084A515C01F01F01C8400749B8
:1028F000086007480068FFF7F3F80746384651E7D5
:1029000000200240001002407C830308DC0100200C
:10291000D40100200148006870470000DC0100205D
:1029200000B5FFF7F7FF05498968C1F30221044AA2
:10293000515C01F01F01C84000BD000000100240C2
:102940008C83030800B5FFF7E5FF05498968C1F3EB
:10295000C221044A515C01F01F01C84000BD0000C3
:10296000001002408C830308F0B500230020DFF83C
:10297000D4C0DCF808C00CF00C01DFF8C8C0DCF8EB
:102980000CC00CF0030719B10C291ED1012F1CD16A
:10299000DFF8B0C0DCF800C00CF0080CBCF1000F90
:1029A00006D1DFF8A0C0DCF894C0CCF3032305E027
:1029B000DFF890C0DCF800C0CCF30313DFF888C068
:1029C0005CF8233041B9184606E0042901D11F48BC
:1029D00002E0082900D11D480C2932D1DFF864C07B
:1029E000DCF80CC00CF00304012C09D0022C02D03E
:1029F000032C04D101E0154A04E0144A02E000BFB0
:102A00001A4600BF00BFDFF83CC0DCF80CC0CCF3B6
:102A1000021C0CF10106DFF82CC0DCF80CC0CCF372
:102A2000062C0CFB02FCBCFBF6F2DFF818C0DCF84D
:102A30000CC0CCF3416C0CF1010C4FEA4C05B2FB1D
:102A4000F5F0F0BD00100240948303080024F40068
:102A50002DE9F843044614B90120BDE8F883F9488C
:102A6000806800F00C06F748C06800F00307207883
:102A700000F01000102877D11EB10C2E76D1012F56
:102A800074D1F048006800F0020018B1A06908B9DC
:102A90000120E2E7EB48216A006800F0080020B15D
:102AA000E848006800F0F00005E0E648943000686F
:102AB00000F47060000981421FD9206A02F00AFD0B
:102AC00008B10120C9E700BFDE48006840F00800F7
:102AD000DC4908600846006820F0F000216A0843DD
:102AE000D849086000BF0846406820F47F40E1698B
:102AF00040EA0120D34948601FE000BFD148006888
:102B000040F00800CF4908600846006820F0F00057
:102B1000216A0843CB49086000BF0846406820F49A
:102B20007F40E16940EA0120C64948602EB9206A29
:102B300002F0D0FC08B101208FE7FFF715FFC14973
:102B40008968C1F30311C04A515C01F01F01C840FC
:102B5000BE490860BE480068FEF7C2FF8046B8F173
:102B6000000F4ED0404678E74BE0FFE7A06980B306
:102B7000B448006840F00100B2490860FEF7EAFC82
:102B8000054606E0FEF7E6FC401B022801D90320BB
:102B900063E7AC48006800F002000028F2D000BFF4
:102BA000A848006840F00800A64908600846006888
:102BB00020F0F000216A0843A249086000BF0846DF
:102BC000406820F47F40E16940EA01209D49486067
:102BD00017E0FFE79B48006820F001009949086072
:102BE000FEF7B8FC054606E0FEF7B4FC401B0228E1
:102BF00001D9032031E79348006800F00200002863
:102C0000F2D1207800F0010000285CD0082E03D01B
:102C10000C2E0AD1032F08D18A48006800F4003036
:102C200088B3606878BB012017E700BF6068B0F523
:102C3000803F06D18348006840F4803081490860B5
:102C40001AE06068B0F5A02F0BD17E48006840F410
:102C500080207C4908600846006840F480300860A5
:102C60000AE07848006820F4803076490860084619
:102C7000006820F48020086000BF606890B1FEF713
:102C800069FC054607E01EE0FEF764FC401B642873
:102C900001D90320E1E66B48006800F40030002809
:102CA000F2D010E0FEF756FC054606E0FEF752FCB7
:102CB000401B642801D90320CFE66248006800F475
:102CC00000300028F2D1207800F00200022852D112
:102CD000042E03D00C2E14D1022F12D159480068B3
:102CE00000F4806018B1E06808B90120B5E65548E5
:102CF000406820F0FE40217C40EA01605149486074
:102D000039E0E06800B34F48006840F480704D49F6
:102D10000860FEF71FFC054606E0FEF71BFC401BA3
:102D2000022801D9032098E64648006800F4806034
:102D30000028F2D04348406820F0FE40217C40EA61
:102D400001604049486016E03E48006820F4807009
:102D50003C490860FEF7FEFB054606E0FEF7FAFB7D
:102D6000401B022801D9032077E63648006800F4AA
:102D700080600028F2D1207800F00800082836D1C1
:102D80006069D0B12F489430006840F001002D49AF
:102D9000C1F89400FEF7DEFB054606E0FEF7DAFB1D
:102DA000401B022801D9032057E6264894300068CA
:102DB00000F002000028F1D019E0224894300068A9
:102DC00020F001001F49C1F89400FEF7C3FB05463F
:102DD00006E0FEF7BFFB401B022801D903203CE6BA
:102DE00018489430006800F002000028F1D12078E3
:102DF00000F00400042872D14FF000091148806DE2
:102E000000F0805078B900BF0E48806D40F08050CF
:102E10000C4988650846806D00F08050009000BF26
:102E200000BF4FF001090B48006800F4807000BB40
:102E30000848006840F4807006490860FEF78AFB85
:102E4000054610E0001002407C830308DC010020EE
:102E5000D401002000700040FEF77CFB401B0228DC
:102E600001D90320F9E5D048006800F480700028FB
:102E7000F2D000BFA068012808D1CC48006840F01B
:102E80000100CA499039C1F8900021E0A0680528E6
:102E90000FD1C648006840F00400C4499039C1F819
:102EA00090000846D0F8900040F00100C1F8900072
:102EB0000EE0BE48006820F00100BC499039C1F81E
:102EC00090000846D0F8900020F00400C1F890006F
:102ED00000BFA068A0B1FEF73DFB054609E02EE06B
:102EE000FEF738FB401B41F28831884201D90320AC
:102EF000B3E5AE48006800F002000028F0D012E010
:102F0000FEF728FB054608E0FEF724FB401B41F2D4
:102F10008831884201D903209FE5A448006800F069
:102F200002000028F0D1B9F1010F07D19F48903875
:102F3000806D20F080509D499039886500BF2078D1
:102F400000F02000202838D1606AD8B197480830B6
:102F5000006840F0010095499039C1F89800FEF7EB
:102F6000F9FA054606E0FEF7F5FA401B022801D9FA
:102F7000032072E58D480830006800F00200002848
:102F8000F1D01AE089480830006820F00100874934
:102F90009039C1F89800FEF7DDFA054606E0FEF725
:102FA000D9FA401B022801D9032056E57F48083092
:102FB000006800F002000028F1D1A06A00287DD04E
:102FC000A06A02287BD179489038C76807F00301CE
:102FD000E06A814225D107F07001206B401EB1EB01
:102FE000001F1ED107F4FE41606BB1EB002F18D11A
:102FF00007F078413820005DB1EBC06F11D107F4C4
:10300000C001A08F0122C2EB5000B1EB405F08D19C
:1030100007F0C0614020005DC2EB5000B1EB406F93
:1030200066D00C2E62D061489038006800F0806055
:1030300008B1012011E55D489038006820F08070EB
:103040005A4990390860FEF785FA054606E0FEF712
:1030500081FA401B022801D90320FEE4534890382E
:10306000006800F000700028F1D1D4E90B10401E78
:1030700041EA0011606B41EA0021A08F0122C2EBFE
:10308000500041EA40514020005DC2EB500041EA4F
:1030900040613820005D41EAC06044499039C96808
:1030A000434A1140084341499039C86008460068C6
:1030B00040F0807008600846C06801E05BE03DE0D9
:1030C00040F08070C860FEF745FA054606E0FEF75E
:1030D00041FA401B022801D90320BEE4334890384E
:1030E000006800F000700028F1D05AE00120B4E43C
:1030F0002E489038006800F00070E0BB2B489038F4
:10310000006840F080702949903908600846C0681E
:1031100040F08070C860FEF71DFA054606E0FEF735
:1031200019FA401B022801D9032096E41F48903861
:10313000006800F000700028F1D032E00C2E2ED094
:103140001A489038006820F080701849903908605B
:103150000846006800F0006020B90846C06820F00A
:103160000300C86011489038C068124908400F49F0
:103170009039C86000E014E0FEF7ECF9054606E07F
:10318000FEF7E8F9401B022801D9032065E407484F
:103190009038006800F000700028F1D101E00120B3
:1031A0005BE4002059E400000070004090100240F1
:1031B0008C809D01FFFFEEFE10B50446FDF76AFB13
:1031C00010BD0000F0B589B004460E46002703206C
:1031D00084F83400606C032820D0B6F5805F04D1F9
:1031E000A06B40F08050A0631CE0B6F5006F07D1E3
:1031F000204603F03AF90546A06B2843A06311E08E
:103200003EB9204603F0FDF80546A06B2843A063B5
:1032100008E0A06B40F00060A06303E0A06B40F00A
:103220008050A063A06B20B11648216888630127F5
:1032300013E060680390A0680490E068059006962B
:1032400060690790A069089006A807C88DE8070084
:10325000206803A90EC902F0C2FD4FF40071206876
:1032600002F018FA054635B1064821688863A06B5C
:103270002843A0630127012084F83400384609B0B0
:10328000F0BD0000FF0540007047000010B5024689
:10329000506E800F0870506EC0F383604870506E9F
:1032A000C0F301608870506E000CC870B2F8640002
:1032B000000A087192F864004871906E000DC88091
:1032C000906EC0F3034008726820805AC0F3C0308B
:1032D00048726820805AC0F3803088726820805A13
:1032E000C0F34030C8726820805AC0F300300873C1
:1032F00000204873506C002836D16820805A800521
:10330000030DD06E43EA90700861D06EC0F3C260C6
:103310000875D06EC0F302604875D06EC0F342509D
:103320008875D06EC0F38240C875D06EC0F3C230CD
:1033300008760869401C50650B7E506D03F007034A
:103340009B1C01249C4060435065087A00F00F03E9
:10335000012098409065D2E915035B0A5843D06577
:103360004FF40073136621E0506C012813D16820DC
:10337000805C8006830AD06E43EA104008610869C9
:10338000401C83025365536DD3654FF400739365FE
:10339000936D13660AE02E4813689863906B40F0B3
:1033A00080509063012082F8340010BD6C20805A58
:1033B000C0F3803001F8190F6C20805AC0F3C6109A
:1033C00048706C20805C00F07F008870106FC00F28
:1033D000C870106FC0F341700871106FC0F3826045
:1033E0004871106FC0F383508871106FC0F3405064
:1033F000C87100200872106FC0F30040487270203E
:10340000805AC0F3C03088727020805AC0F3803078
:10341000C8727020805AC0F3403008737020805A00
:10342000C0F3003048737020805AC0F38120887345
:103430007020805AC0F30120C8737020805CC0F3F4
:10344000460008740120487419390020ADE70000D7
:10345000FF0540000246506C0860906C4860D06CDC
:103460008860106DC860506D0861906D4861D06DC6
:103470008861106EC86100207047F8B504460020CE
:1034800000906946204602F0A4FF054615B1A06BE6
:103490002843A0630098C0F343263046F8BD0000DF
:1034A00070B50446256B2068406BC0F3C03030B166
:1034B00005F0080018B1204602F066FFEDE0206834
:1034C000406BC0F30020002862D04FF48070216868
:1034D00088632068C06B4CF23A1188432168C86346
:1034E0002068C06A20F001002168C86205F0080069
:1034F00038B305F0020010B905F0200050B1206883
:1035000002F00CFA06462EB1A06B3043A0632046B1
:10351000FFF7BAFE40F23A5021688863012084F830
:1035200034000020206305F0010010B905F002000E
:1035300018B1204600F098FAAFE0204600F099FA62
:10354000ABE005F080000028B8D005F0200050B1B5
:10355000206802F0E3F906462EB1A06B3043A06369
:103560002046FFF791FE05F001000028A6D105F0E6
:1035700002000028A2D12068C06A20F0080021685B
:10358000C862012084F83400204600F072FA84E01A
:103590002068406BC0F3803030B105F0080018B1EE
:1035A000204602F096FF78E02068406B00F03A0079
:1035B00008B1012000E0002000286ED02068406B98
:1035C000C0F3400018B1A06B40F00200A063206877
:1035D000406BC0F3C00018B1A06B40F00800A063BE
:1035E0002068406BC0F3401018B1A06B40F0200081
:1035F000A0632068406BC0F3001018B1A06B40F0CE
:103600001000A06340F23A50216888632068C06BC4
:1036100020F49D702168C863206802F07FF9A16BD7
:103620000843A06305F0080040B1012084F834008D
:10363000002020632046FFF727FE2EE005F08000E3
:1036400000B305F0100010B905F0200050B1134888
:10365000E16B8863E06BFDF758FC98B1E06B02F01A
:10366000EEFC1AE005F0010010B905F0020050B1BF
:103670000B48216C8863206CFDF747FC10B1206C6F
:1036800002F0B0FC09E00020A063012084F83400BF
:10369000002020632046FFF78FFD70BD3F600008CB
:1036A000E55F000810B504460CB9012010BD94F880
:1036B000340020B900202077204600F08FF8032046
:1036C00084F83400204600F00BF808B10120EDE743
:1036D0000020A0632063012084F834000020E5E787
:1036E0002DE9F0418AB00446002004900590069030
:1036F000079008904FF40020FEF7F2FA074647B90A
:10370000012084F83400C006A06301200AB0BDE89F
:10371000F0812F48B7FBF0F0801E099007A807C87A
:103720008DE80700206804A90EC902F058FB064680
:103730000EB10120EAE72068406820F4807021681B
:103740004860206802F065FB06460EB10120DDE707
:103750002068406840F48070216848600998801CA7
:10376000B7FBF0F71B48B0FBF7F000F1010840464B
:10377000FDF7B0FD204602F0A1FD05463DB1012058
:1037800084F83400A06B2843A0630120BEE72046E4
:1037900002F013FD05463DB1012084F83400A06B12
:1037A0002843A0630120B1E74FF40071206801F0C5
:1037B00071FF05464DB1084821688863A06B284316
:1037C000A063012084F83400A0E700209EE70000F9
:1037D000801A060010210100FF05400010B586B0D8
:1037E0000446142101A8FCF79BFD4F49206888423C
:1037F0007ED100BF4D48006E40F480604B490866A2
:103800000846006E00F48060009000BF00BF00BF5B
:103810000846C06C40F00400C8640846C06C00F064
:103820000400009000BF00BF00BF0846C06C40F01D
:103830000800C8640846C06C00F00800009000BF93
:1038400000BF4FF4E8500190022002900020039046
:10385000032004900C20059001A93548FDF788FD50
:103860004FF400700190022002900020039003208A
:1038700004900C20059001A92D48FDF779FD042046
:1038800001900220029000200390032004900C205D
:10389000059001A92748FDF76BFD274827490860D7
:1038A00007204860002125488160C16080210161B6
:1038B00089004161890081610021C1610162FDF7D8
:1038C00035FC08B1FDF71AFA00BF1C482064846279
:1038D00000BF194814301A490860072048601021B9
:1038E000174881600021C16080210161890000E0EA
:1038F00017E04161890081610021C1610162FDF72A
:1039000015FC08B1FDF7FAF900BF0D48E0638462C9
:1039100000BF002205213120FEF742F93120FEF7D9
:103920002BF906B010BD0000002801400010024035
:1039300000080048000C004844040240740D0020B8
:10394000BC0D00202DE9F04387B004460F46914698
:103950001D46C8463FB9A06B40F00060A06301203F
:1039600007B0BDE8F08394F83400012874D100203A
:10397000A06308EB0501E06D814205D9A06B40F022
:103980000070A0630120EBE7032084F834000020DE
:103990002168C8623148216CC8623148216C486393
:1039A0000020216C88636A029308226802F180017A
:1039B0003A46206CFDF740FC50B12A4821688863E4
:1039C000A06B40F08040A063012084F83400C7E77A
:1039D0002068C06A40F008002168C862606C012855
:1039E00001D04FEA48284FF0FF3001906802029062
:1039F0009020039002200490002005900120069062
:103A000001A9206801F0E0FF012D07D98220206381
:103A10004146206801F0A6FE064606E081202063AC
:103A20004146206801F0BAFE064666B10D4821689D
:103A30008863A06B3043A063012084F83400002029
:103A4000206301208CE72068C06B40F495702168EA
:103A5000C863002084E7FFE7022081E79D5F00083C
:103A6000315F0008FF05400010B50446FCF768FF11
:103A700010BD10B50446FCF789FF10BD2DE9F043D9
:103A800087B00446884691461D464F46B8F1000F60
:103A900007D1A06B40F00060A063012007B0BDE833
:103AA000F08394F83400012874D10020A0637919C0
:103AB000E06D814205D9A06B40F00070A063012049
:103AC000ECE7032084F8340000202168C862324803
:103AD000E16BC8623148E16B48630020E16B8863A9
:103AE000606C012800D07F02012D07D9A02020633F
:103AF0003946206801F030FF064606E0902020633A
:103B00003946206801F044FF064666B12448216822
:103B10008863A06B3043A063012084F83400002048
:103B200020630120BAE72068C06A40F008002168DD
:103B3000C86269028B08216801F180024146E06B8E
:103B4000FDF77AFB68B1164821688863A06B40F0E6
:103B50008040A063012084F834000020206301200D
:103B60009CE74FF0FF300190680202909020039094
:103B70000020049005900120069001A9206801F022
:103B800023FF2068C06B40F01A002168C863002042
:103B900084E7FFE7022081E72D600008315F00081D
:103BA000FF05400070B504462546681EB0F1807FD1
:103BB00001D301200FE0681E4FF0E02148610F2182
:103BC0004FF0FF3004F026F900204FF0E02188612B
:103BD00007200861002070BD7047704770470000E3
:103BE00030B502460B4600BF92F83C00012801D1D7
:103BF000022030BD012082F83C0000BF022082F884
:103C00003D001068416810688468174D1068A8422C
:103C100003D121F470015868014321F07001186844
:103C2000014310684160104D1068A8420BD0106825
:103C3000B0F1804F07D00D4D1068A84203D00C4D55
:103C40001068A84205D124F08004986804431068E5
:103C50008460012082F83D0000BF002082F83C0013
:103C600000BF00BFC5E70000002C01400004004079
:103C70000040014010B504460CB9012010BD94F875
:103C80003D0028B9002084F83C00204600F02AF8C6
:103C9000022084F83D00211D206803F0E7F8012090
:103CA00084F8480000BF84F83E0001213F20015500
:103CB0004020015541200155422001554320015526
:103CC00000BF00BF012084F8440045200155462074
:103CD00001554720015500BF012084F83D00002018
:103CE000CCE7000010B586B00446142101A8FCF70B
:103CF00017FB32492068884229D100BF3048006E46
:103D000040F400602E4908660846006E00F400602A
:103D1000009000BF00BF00BF0846C06C40F001002B
:103D2000C8640846C06C00F00100009000BF00BFEE
:103D3000C8140190022002900020039004900120FA
:103D4000059001A94FF09040FDF712FB34E0206888
:103D5000B0F1804F16D100BF1948806D40F00100CE
:103D6000174988650846806D00F00100009000BF8B
:103D700000BF002211461C20FDF712FF1C20FDF79A
:103D8000FBFE19E00F492068884215D100BF0C489E
:103D9000806D40F002000A4988650846806D00F099
:103DA0000200009000BF00BF002211461D20FDF759
:103DB000F7FE1D20FDF7E0FE06B010BD002C01400F
:103DC0000010024000040040704710B5044620680F
:103DD0000069C0F34000D8B12068C068C0F340005B
:103DE000B0B16FF0020021680861012020772068DF
:103DF000806900F0030018B12046FFF7E5FF05E0F9
:103E0000204600F0BEF8204600F0BCF800202077E5
:103E100020680069C0F38000D8B12068C068C0F392
:103E20008000B0B16FF004002168086102202077A3
:103E30002068806900F4407018B12046FFF7C4FF85
:103E400005E0204600F09DF8204600F09BF8002099
:103E5000207720680069C0F3C000D8B12068C0682E
:103E6000C0F3C000B0B16FF0080021680861042001
:103E700020772068C06900F0030018B12046FFF7E2
:103E8000A3FF05E0204600F07CF8204600F07AF819
:103E90000020207720680069C0F30010D8B12068A6
:103EA000C068C0F30010B0B16FF010002168086165
:103EB000082020772068C06900F4407018B12046BF
:103EC000FFF782FF05E0204600F05BF8204600F097
:103ED00059F8002020772068006900F0010058B1EF
:103EE0002068C06800F0010030B16FF00100216867
:103EF0000861204600F047F820680069C0F3C01050
:103F000058B12068C068C0F3C01030B16FF08000B5
:103F1000216808612046FFF760FE20680069C0F351
:103F2000002058B12068C068C0F3C01030B16FF4F1
:103F30008070216808612046FFF74EFE2068006906
:103F4000C0F3801058B12068C068C0F3801030B151
:103F50006FF0400021680861204600F04BF82068AF
:103F60000069C0F3401058B12068C068C0F3401029
:103F700030B16FF02000216808612046FFF72EFE67
:103F800010BD70477047704770B504460D4600BFBE
:103F900094F83C00012801D1022070BD012084F872
:103FA0003C0000BF022084F83D002946204602F074
:103FB000ABFF48B1012084F83D0000BF002084F829
:103FC0003C0000BF0120E8E72068C06820F0400006
:103FD0002168C8602068C06820F480402168C860FB
:103FE000012084F83D0000BF002084F83C0000BFA1
:103FF00000BFD2E770477047704700002DE9F047D7
:1040000004462068C569206806682068876840F60D
:104010000F0005EA0008B8F1000F0CD105F02000F0
:1040200048B106F0200030B1206E10B12046216E5C
:104030008847BDE8F087B8F1000F7DD007F0010098
:1040400018B95A4830400028F7D005F0010048B1AF
:1040500006F4807030B1012021680862E06F40F002
:104060000100E06705F0020048B107F0010030B13F
:10407000022021680862E06F40F00400E06705F06C
:10408000040048B107F0010030B104202168086243
:10409000E06F40F00200E06705F0080060B106F054
:1040A000200010B907F0010030B108202168086233
:1040B000E06F40F00800E06705F4006050B106F0E2
:1040C000806038B14FF4006021680862E06F40F012
:1040D0002000E067E06F80B305F0200038B106F003
:1040E000200020B1206E10B12046216E8847D4F800
:1040F0007C902068806800F04000402802D009F0E1
:10410000280030B3204603F095F82068806800F05E
:104110004000402819D12068806820F040002168C4
:104120008860E06E68B12248E16E8863E06EFCF75B
:10413000ECFE10B1E06E01E011E00FE0816B88470A
:104140000CE02046FFF758FF08E02046FFF754FF39
:1041500004E02046FFF750FF0020E06769E705F420
:10416000801050B107F4800038B14FF480102168FE
:1041700008622046FFF73FFF5BE705F0800040B193
:1041800006F0800028B1606E10B12046616E88474D
:104190004FE705F0400030B106F0400018B120466E
:1041A00003F059F845E700BF43E700002001000491
:1041B0008171000810B504460CB9012010BDA0693A
:1041C00000B100E000BF606F28B9002084F87000E3
:1041D000204600F029F8242060672068006820F05D
:1041E000010021680860204603F0B6F8012800D1DC
:1041F000E4E7606A10B1204602F00FFF20684068D3
:1042000020F49040216848602068806820F02A00EF
:10421000216888602068006840F00100216808601B
:10422000204602F076FFC9E710B586B00446142197
:1042300001A8FCF775F8CE49206888424DD100BF2F
:10424000CC48806D40F40020CA4988650846806DDE
:1042500000F40020009000BF00BF00BF0846C06C03
:1042600040F00100C8640846C06C00F001000090F6
:1042700000BF00BF032001900220029000200390A5
:10428000032004900820059001A94FF09040FDF70D
:104290006FF8B948B9490860022048601021B74852
:1042A00081600021C1608021016100214161816143
:1042B000C1610162FCF73AFF08B1FCF71FFD00BFC6
:1042C000AE48A066846200BF002211463420FDF78C
:1042D00067FC3420FDF750FC47E1A949206888427B
:1042E00069D100BFA348006E40F48040A149086630
:1042F0000846006E00F48040009000BF00BF00BF81
:104300000846C06C40F00100C8640846C06C00F06C
:104310000100009000BF00BF4FF4C0600190022078
:10432000029000200390032004900720059001A92B
:104330004FF09040FDF71CF8924893490860022026
:104340004860002190488160C160802101610021A6
:1043500041618161C1610162FCF7E8FE08B1FCF7CF
:10436000CDFC00BF8848E066846200BF85481438F1
:10437000864908600220486010218448816000213D
:10438000C16080210161002141618161C1610162DF
:10439000FCF7CCFE08B1FCF7B1FC00BF7B48A0667F
:1043A000846200BF002211462520FDF7F9FB25207D
:1043B000FDF7E2FBD9E076492068884269D100BF69
:1043C0006C48806D40F400306A4988650846806D0D
:1043D00000F40030009000BF00BF00BF0846C06C72
:1043E00040F00100C8640846C06C00F00100009075
:1043F00000BF00BF0C20019002200290002003901B
:10440000032004900720059001A94FF09040FCF78D
:10441000AFFF5C4828305F490860022048601021E7
:104420005C4881600021C1608021016100214161FF
:104430008161C1610162FCF779FE08B1FCF75EFCA5
:1044400000BF5448A066846200BF4E4814305249F1
:1044500008600220486000214F488160C1608021CF
:104460000161002141618161C1610162FCF75EFE71
:1044700008B1FCF743FC00BF4748E066846200BF18
:10448000002211462620FDF78BFB2620FDF774FB4A
:104490006BE042492068884267D100BF3548806D93
:1044A00040F48020334988650846806D00F4802000
:1044B000009000BF00BF00BF0846C06C40F0040081
:1044C000C8640846C06C00F00400009000BF00BF44
:1044D00030200190022002900020039003200490DD
:1044E0000720059001A92E48FCF742FF25482838EF
:1044F0002C4908600220486000212A488160C16080
:1045000080210161002141618161C1610162FCF78B
:104510000DFE08B1FCF7F2FB00BF2248E0668462A2
:1045200000BF18483C38204908600220486010212C
:104530001D4881600021C16080210161002141612D
:104540008161C1610162FCF7F1FD08B1FCF7D6FBA6
:1045500000BF1548A066846200BF002211462720D4
:10456000FDF71EFB2720FDF707FB06B010BD00007E
:10457000004C00400010024030040240040E0020B5
:1045800000380140580002404C0E0020940E0020DC
:1045900000440040DC0E0020240F002000480040B2
:1045A000000800486C0F0020B40F002010B503462F
:1045B000986F202865D101B10AB9012010BD00BF54
:1045C00093F87000012801D10220F7E7012083F859
:1045D000700000BF5965A3F85820A3F85A200020A6
:1045E000186600BF9868B0F5805F0AD1186920B9D5
:1045F00040F2FF10A3F85C0020E0FF20A3F85C006D
:104600001CE0986848B9186918B9FF20A3F85C0045
:1046100014E07F20A3F85C0010E09868B0F1805FA0
:1046200009D1186918B97F20A3F85C0006E03F2083
:10463000A3F85C0002E00020A3F85C0000BF0020AB
:10464000D867222098671868806840F001001C68CD
:10465000A0609868B0F5805F04D1186910B90A4865
:10466000186601E00948186600BF002083F8700052
:1046700000BF1868006840F490701C68206000203B
:104680009CE702209AE7000089720008F372000894
:1046900070B50446A949206888424FD1A8480178DE
:1046A000A84802780078401CA64B1870A648815490
:1046B0000078FA2803D118460078282807DD002062
:1046C000A04908706421A048FBF72AFE30E09E480C
:1046D0000078FA282CD19C484078FF2828D19948A6
:1046E0000078282824D126219748401CFCF788FA16
:1046F000954991F8271088421AD19448007868B1FA
:104700000020924908709248006892490860084663
:10471000006891490968401A9049086028220121DF
:10472000894806F06BF800208D49086085490870BB
:10473000012283498B48FFF739FFFEE08A49206850
:10474000884240D189480178894802780078401C25
:10475000874B1870874881540078FA2803D118468F
:104760000078232807DD00208149087064218148F2
:10477000FBF7D6FD21E07F480078FA281DD17D485F
:104780004078FF2819D17A480078232815D16F483E
:10479000007868B100206D4908706D4800686D4967
:1047A0000860084600686C490968401A6B4908604F
:1047B00000206F4908707049086001226B496F48FA
:1047C000FFF7F4FEB9E06E492068884234D16D48A5
:1047D00002786D4801780078401C6B4B18706B486C
:1047E00042540078FA2803D118460078282807DDBB
:1047F00000206549087064216448FBF791FD15E0CD
:1048000062480078FA2811D160484078FF280DD11D
:104810005D480078282809D1282202215B4805F04C
:10482000EDFF00205A490860574908700122554998
:104830005848FFF7BBFE80E05749206888427CD18A
:1048400056480178564802780078401C544B18703E
:10485000544881540078FA2803D118460078082873
:1048600007DD00204E4908700A214E48FBF758FD2D
:104870005EE04C480078FA2827D14A488078A6287C
:1048800023DA4748007806281FD146488078A528B3
:1048900003D10120444948700EE042488078A328A3
:1048A00003D101204049887006E03E488078A42862
:1048B00002D102203C4988700020394908703B48E9
:1048C0000068401C3949086032E036480078FA2810
:1048D0002ED134484078FF282AD131480078082862
:1048E00026D130488078A6281AD100252D48C078D6
:1048F00045EA00652B48007945EA0045294840799A
:1049000045EA00252748807905432748456001206E
:1049100025494870C8700A212248FBF701FD00BFF5
:1049200000201F49087021480068401C1F4908608A
:1049300001221A491E48FFF739FE70BD00380140B8
:10494000270200202B020020244E0020140000200B
:10495000040000200C0000200800002010000020AF
:104960001C000020A44C002000440040280200202D
:104970002C020020884E002020000020244D002022
:1049800000480040290200202D020020EC4E0020AB
:1049900024000020A44D0020004C00402A020020EA
:1049A0002E020020504F002050010020280000203F
:1049B000244C002070B504460E461546606F202832
:1049C00049D106B10DB9012070BD00BF94F8700047
:1049D000012801D10220F7E7012084F8700000BF10
:1049E000E664A4F85050A4F852500020E06721205B
:1049F0006067A06EF8B11948A16EC8621848A16E30
:104A000008631848A16E48630020A16E886323687C
:104A100003F128022B46E16CA06EFCF70DFC50B1AF
:104A20001020E06700BF002084F8700000BF202045
:104A300060670120C8E740202168086200BF0020AD
:104A400084F8700000BF2068806840F08000216812
:104A500088600020B8E70220B6E70000EF71000888
:104A600027720008997100087047704700BFFEE781
:104A700010B5FCF777F900F0EBFA10BD00F00F006D
:104A80000A2803DB00F15701C8B202E000F130014F
:104A9000C8B2704701688969C1F3400111B10021B2
:104AA000026891620168896901F0010129B9016810
:104AB000896941F0010102689161704770B504464F
:104AC0000D46164620688069C0F3001000283DD0CE
:104AD00017E0681CA8B1FCF73DFD801BA84200D878
:104AE0007DB9606C40F020006064202084F84100B3
:104AF000002084F8420000BF84F8400000BF01207D
:104B000070BD20688069C0F340100028E1D01020FB
:104B10002168C86120202168C8612046FFF7BAFFDC
:104B2000206840680A49084021684860606C40F08D
:104B300004006064202084F84100002084F84200D2
:104B400000BF84F8400000BF0120D9E70020D7E76C
:104B500000E800FEF0B5059C05686D684FF48066BE
:104B600006EA545666F0FC2646F4C046B543C1F347
:104B700009064FF47F0707EA02473E431E432643D8
:104B8000354306687560F0BD2DE9F04104460E46D8
:104B900017461D46DDF8188019E0681CB8B1FCF70F
:104BA000D9FCA0EB0800A84200D885B9606C40F0A1
:104BB00020006064202084F84100002084F8420036
:104BC00000BF84F8400000BF0120BDE8F0812068EC
:104BD00080693040B04201D1012000E00020B8429D
:104BE000DBD00020F1E7000070B504460D46164604
:104BF00040E0324629462046FFF760FF08B1012019
:104C000070BD20688069C0F34010F8B120688069E9
:104C1000C0F3800018B1208D08B10020F0E72020FB
:104C20002168C861206840681649084021684860CA
:104C300000206064202084F84100002084F84200B5
:104C400000BF84F8400000BF0120D9E7FCF782FCD8
:104C5000801BA84200D86DB9606C40F020006064F1
:104C6000202084F8410000BF002084F8400000BFED
:104C70000120C5E720688069C0F380000028B8D013
:104C80000020BDE700E800FE70B504460D4616465C
:104C90001DE0324629462046FFF710FF08B10120EB
:104CA00070BDFCF757FC801BA84200D87DB9606C32
:104CB00040F020006064202084F84100002084F847
:104CC000420000BF84F8400000BF0120E8E72068F0
:104CD0008069C0F340100028DBD00020E0E770B509
:104CE00004460D4616461FE0324629462046FFF789
:104CF000E5FE08B1012070BD681CA8B1FCF72AFCD4
:104D0000801BA84200D87DB9606C40F02000606430
:104D1000202084F84100002084F8420000BF84F87D
:104D2000400000BF0120E6E720688069C0F3400032
:104D30000028D9D00020DEE710B50248FCF7ADFE10
:104D400010BD0000940C00200146642291FBF2F398
:104D500002FB131232B94FF4C87291FBF2F302FB5B
:104D6000131262B1642291FBF2F302FB131242B1FF
:104D7000CA1701EB92729210A1EB82020AB90120CC
:104D800070470020FCE7000008B500BF3148806C88
:104D900040F002002F4988640846806C00F0020051
:104DA000009000BF00BF00BF0846806C40F00100CB
:104DB00088640846806C00F00100009000BF00BFCE
:104DC000002211460C20FCF7EBFE0C20FCF7D4FE71
:104DD000002211460D20FCF7E3FE0D20FCF7CCFE6F
:104DE000002211460E20FCF7DBFE0E20FCF7C4FE6D
:104DF000002211460F20FCF7D3FE0F20FCF7BCFE6B
:104E0000002211461020FCF7CBFE1020FCF7B4FE68
:104E1000002211461120FCF7C3FE1120FCF7ACFE66
:104E2000002211463A20FCF7BBFE3A20FCF7A4FE14
:104E3000002205213B20FCF7B3FE3B20FCF79CFE43
:104E4000002205213C20FCF7ABFE3C20FCF794FE41
:104E500008BD00000010024010B503490348FBF7ED
:104E60004EFF0349087010BD6101002078D700088B
:104E70006001002000B587B0142102A8FBF750FAAA
:104E800000BF4548C06C40F080004349C8640846F4
:104E9000C06C00F08000019000BF00BF00BF08465A
:104EA000C06C40F00400C8640846C06C00F0040008
:104EB000019000BF00BF00BF0846C06C40F0010079
:104EC000C8640846C06C00F00100019000BF00BF3C
:104ED00000BF0846C06C40F00200C8640846C06CC1
:104EE00000F00200019000BF00BF00BF0846C06C88
:104EF00040F00800C8640846C06C00F0080001904B
:104F000000BF00BF0420029000200390049002A97B
:104F10002248FCF72DFA0720029001200390002080
:104F20000490059002A91E48FCF722FA01221146BE
:104F30001B48FCF709FB012204211948FCF704FB7C
:104F4000002202211648FCF7FFFA4FF4807002900D
:104F50000120039004900020059002A91048FCF75E
:104F600007FA00224FF480710D48FCF7EDFA4FF478
:104F7000005002900B4803900120049002A90748BA
:104F8000FCF7F6F9002211462820FCF709FE28203C
:104F9000FCF7F2FD07B000BD001002400008004819
:104FA000000400480000211010B5124812490860A2
:104FB000124848600021104881600121C160002131
:104FC000016141618161C1610162FCF733FB08B19C
:104FD000FBF794FE00210848FCF7C2FA08B1FBF782
:104FE0008DFE00210448FCF7F0FA08B1FBF786FEBD
:104FF00010BD000000840040A40C0020FF89301088
:1050000010B50848084908600220486040F6FF7162
:105010000548C1608160FCF70FFD08B1FBF76EFE2B
:1050200010BD000000300040940C002006480749E5
:10503000086000204860002104488160C16001616F
:10504000416181617047000000280140F00C0020A0
:1050500000B589B0142104A8FBF762F90020019083
:105060000290039010481149086041F63F70486073
:1050700000210E48816042F20F71C1600021016180
:105080008161FEF7F7FD072004900020059004A938
:105090000648FEF779FF00200190039001A903481C
:1050A000FEF79EFD09B000BD0004004070500020D6
:1050B00010B500241148124908604FF4E1304860EF
:1050C00000210F488160C16001610C214161002114
:1050D0008161C16101620020094948620846FFF709
:1050E00069F808B101F098FF012206490448FFF76A
:1050F0005DFA04460CB101F08FFF10BD004C00407A
:10510000244C00202A02002010B500241348144922
:1051100008604FF4E1304860002111488160C160AF
:1051200001610C21416100218161C16101620020A6
:105130000B4948620846FFF73DF808B101F06CFFE3
:1051400028210848FBF7ECF8012207490448FFF73B
:105150002DFA04460CB101F05FFF10BD003801408C
:10516000A44C0020244E00202702002010B500246B
:105170001148124908604FF4E130486000210F489F
:105180008160C16001610C21416100218161C161C7
:1051900001620020094948620846FFF70BF808B190
:1051A00001F03AFF012206490448FFF7FFF90446DF
:1051B0000CB101F031FF10BD00440040244D00202F
:1051C0002802002010B500241348144908604FF449
:1051D000E1304860002111488160C16001610C210B
:1051E000416100218161C161016200200B49486277
:1051F0000846FEF7DFFF08B101F00EFF282108483E
:10520000FBF78EF8012207490448FFF7CFF904465F
:105210000CB101F001FF10BD00480040A44D00207A
:10522000EC4E00202902002000BFFEE7704700007E
:10523000F0B505460E46002000240023B5F5006FAA
:1052400007D13F4F3F6807F44004B4F5400F00D149
:105250003C48002873D13146B4F5000F37D1384FA0
:10526000883F3F6807F00077B7F1007F25D1344FC2
:10527000883FFF6807F48037FFB1314F883FFF68F0
:10528000C7F302177F1CB1FBF7F12D4F883FFF6872
:10529000C7F306222A4F883FFF68FB0E43B9284F09
:1052A000883FFF6807F400370FB1112300E00723A0
:1052B00001FB02F7B7FBF3F041E0214F883F3F6865
:1052C00007F48067B7F5806F39D11F4837E064BBBA
:1052D0001B4F883F3F6807F00067B7F1006F25D18B
:1052E000174F883F3F6907F48037FFB1144F883F5D
:1052F000FF68C7F302177F1CB1FBF7F1104F883F1F
:105300003F69C7F306220E4F883F3F69FB0E43B942
:105310000B4F883F3F6907F400370FB1112300E0BE
:10532000072301FB02F7B7FBF3F008E0044F883FC7
:105330003F6807F48067B7F5806F00D10248F0BD81
:105340008810024068FF1F000024F4002DE9F0419E
:1053500004460F4600255B48C06800F0030090B18A
:105360005848C06800F003002168884209D12068CD
:1053700038B15448C068C0F30210401C61688842CC
:1053800033D0012531E02068012804D0022809D05B
:1053900003281AD10DE04B48006800F0020000B964
:1053A000012514E04748006800F4806000B9012539
:1053B0000DE04448006800F4003028B94148006816
:1053C00000F4802000B9012501E0012500BF00BFE5
:1053D0005DB9D4E90010401E41EA00103949C9689E
:1053E00021F0730108433749C860002D67D1354863
:1053F000006820F0806033490860FCF7ABF806468F
:1054000006E0FCF7A7F8801B022801D9032505E078
:105410002C48006800F000600028F2D100BFC5BB36
:1054200067B9A0680002217B40EAC160254909698B
:10543000254A114008432349086120E0012F0FD17C
:10544000A0680002218A0122C2EB510140EA4150CA
:105450001C4909691D4A114008431A4908610EE0B8
:10546000A0680002217D0122C2EB510140EA4160A7
:1054700014490969164A1140084312490861114844
:10548000006840F080600F490860FCF763F806464A
:1054900007E014E0FCF75EF8801B022801D9032521
:1054A00005E00848006800F000600028F2D000BF66
:1054B0002DB904480069A1690843024908612846DA
:1054C000BDE8F08100100240FF80FF07FF809FFFD2
:1054D000FF80FFF9F8B5044600262348806D00F0F0
:1054E000805018B1FCF7F4FB054616E000BF1E48DB
:1054F000806D40F080501C4988650846806D00F042
:105500008050009000BF00BFFCF7E2FB0546164844
:10551000806D20F0805014498865B5F5007F07D173
:10552000802C10D9A02C01D902260CE001260AE01B
:10553000802C01D9032606E0802C01D1022602E04E
:10554000702C00D101260948006820F00700304384
:10555000064908600846006800F00700B04201D024
:105560000120F8BD0020FCE70010024000200240AE
:105570002DE9F043034600BF002500240026002744
:10558000012901D002290DD1A3F1010C4FF06408CB
:10559000BCFBF8F4BCFBF8F908FB19C501F10C06DB
:1055A000174609E04FF0640CB3FBFCF4B3FBFCF8C6
:1055B0000CFB18350E46174606F1010C4FF01A0881
:1055C0000CFB08FC4FF00A08BCFBF8FC05EB950847
:1055D00008EB94084FF0020909FB1488C444BC444A
:1055E000ACF10100002806DB4FF0070C90FBFCF843
:1055F0000CFB180C07E04FF0070C90FBFCF80CFBC1
:10560000180C0CF1070C604600B90720BDE8F083C8
:1056100010B50248FDF744FF10BD0000F00C00205B
:1056200070B585B005460C460094372001904020A7
:105630000290002003904FF4806004906946284651
:1056400000F0F4FB41F288323721284600F0F2F9ED
:105650000646304605B070BD70B585B005460C46AF
:105660000B48204300902920019040200290002008
:1056700003904FF4806004906946284600F0D6FB02
:10568000284600F0DFFA0646304605B070BD00003F
:105690000000108070B585B005460C4600941020BF
:1056A000019040200290002003904FF4806004900D
:1056B0006946284600F0BAFB41F28832102128469C
:1056C00000F0B8F90646304605B070BD70B585B03B
:1056D00005460C46009406200190402002900020D0
:1056E00003904FF4806004906946284600F09EFBCA
:1056F00041F288320621284600F09CF906463046E1
:1057000005B070BD30B585B0044600200090019012
:10571000029003904FF4806004906946204600F0A8
:1057200085FB204600F066F90546284605B030BDE9
:1057300030B585B004464FF4D57000900820019034
:1057400040200290002003904FF48060049069464E
:10575000204600F06BFB204600F0FCFA0546284688
:1057600005B030BD70B585B005460C4600941220DA
:10577000019040200290002003904FF4806004903C
:105780006946284600F052FB41F288321221284631
:1057900000F050F90646304605B070BD70B585B0D2
:1057A00005460C46009411200190402002900020F4
:1057B00003904FF4806004906946284600F036FB61
:1057C00041F288321121284600F034F9064630466D
:1057D00005B070BDF0B585B0064614461D46009470
:1057E0000720019040200290002003904FF4806039
:1057F00004906946304600F019FB41F288320721D7
:10580000304600F017F90746384605B0F0BD30B510
:1058100085B004460020009002200190C020029034
:10582000002003904FF4806004906946204600F009
:10583000FDFA204600F0D4F90546284605B030BDF3
:1058400070B585B005460C46009409200190C02033
:105850000290002003904FF480600490694628462F
:1058600000F0E4FA284600F0BBF90646304605B0E1
:1058700070BD30B585B00446002000903320019003
:1058800040200290002003904FF48060049069460D
:10589000204600F0CBFA41F288323321204600F056
:1058A000C9F80546284605B030BD70B585B0054637
:1058B0000C4600940D20019040200290002003909F
:1058C0004FF4806004906946284600F0AFFA41F238
:1058D00088320D21284600F0ADF80646304605B066
:1058E00070BD70B585B005460C46002000900320C1
:1058F000019040200290002003904FF480600490BB
:105900006946284600F092FA22460321284600F014
:10591000C5F90646304605B070BD000030B585B00B
:105920000446002000900C200190402002900020AE
:1059300003904FF4806004906946204600F076FAA8
:10594000044A0C21204600F075F80546284605B0AB
:1059500030BD000000E1F50570B585B005460C4688
:1059600000941920019040200290002003904FF4F1
:10597000806004906946284600F058FA41F2883267
:105980001921284600F056F80646304605B070BD8D
:1059900070B585B005460C46009418200190402053
:1059A0000290002003904FF48060049069462846DE
:1059B00000F03CFA41F288321821284600F03AF80B
:1059C0000646304605B070BD10B502460023086893
:1059D000506248689062D1E9020420430C69204378
:1059E0004C6920430343D06A20F0F7001843D0628B
:1059F000002010BD01460E480068C0084FF47A73BD
:105A0000B0FBF3F041F2883300FB03F200BF101E3D
:105A1000A2F1010202D14FF000407047486B00F044
:105A200080000028F3D0C52088630020F5E700003F
:105A3000DC0100202DE9F04305460F4690466648FC
:105A40000068C0084FF47A71B0FBF1F000FB08F970
:105A500000BFB9F10000A9F1010903D14FF00040E6
:105A6000BDE8F0836E6B06F045000028F1D006F427
:105A700000600028EDD1686B00F0040010B1042034
:105A8000A863EDE7686B00F0010010B10120A86386
:105A9000E6E7C520A863284600F092F9B84201D095
:105AA0000120DDE70021284600F093F904464B4829
:105AB000204008B90020D3E704F00040B0F1004FC7
:105AC00002D14FF00070CBE704F08040B0F1804F7E
:105AD00001D14020C4E704F00050B0F1005F01D1D3
